{
  "_format": "hh-sol-artifact-1",
  "contractName": "Jobs",
  "sourceName": "contracts/Jobs.sol",
  "abi": [
    {
      "anonymous": false,
      "inputs": [
        {
          "indexed": true,
          "internalType": "address",
          "name": "author",
          "type": "address"
        },
        {
          "indexed": false,
          "internalType": "string",
          "name": "description",
          "type": "string"
        },
        {
          "indexed": false,
          "internalType": "uint256",
          "name": "price",
          "type": "uint256"
        },
        {
          "indexed": false,
          "internalType": "uint256",
          "name": "id",
          "type": "uint256"
        },
        {
          "indexed": false,
          "internalType": "bool",
          "name": "isFinished",
          "type": "bool"
        }
      ],
      "name": "jobAdded",
      "type": "event"
    },
    {
      "anonymous": false,
      "inputs": [
        {
          "indexed": true,
          "internalType": "address",
          "name": "author",
          "type": "address"
        },
        {
          "indexed": true,
          "internalType": "address",
          "name": "worker",
          "type": "address"
        },
        {
          "indexed": false,
          "internalType": "uint256",
          "name": "id",
          "type": "uint256"
        },
        {
          "indexed": false,
          "internalType": "uint256",
          "name": "pricePaid",
          "type": "uint256"
        }
      ],
      "name": "jobIsFinishedAndPaid",
      "type": "event"
    },
    {
      "anonymous": false,
      "inputs": [
        {
          "indexed": true,
          "internalType": "address",
          "name": "worker",
          "type": "address"
        },
        {
          "indexed": false,
          "internalType": "uint256",
          "name": "id",
          "type": "uint256"
        }
      ],
      "name": "jobTaken",
      "type": "event"
    },
    {
      "inputs": [
        {
          "internalType": "string",
          "name": "_description",
          "type": "string"
        }
      ],
      "name": "addJob",
      "outputs": [],
      "stateMutability": "payable",
      "type": "function"
    },
    {
      "inputs": [
        {
          "internalType": "uint256",
          "name": "_id",
          "type": "uint256"
        }
      ],
      "name": "setIsFinishedAndPay",
      "outputs": [],
      "stateMutability": "nonpayable",
      "type": "function"
    },
    {
      "inputs": [
        {
          "internalType": "uint256",
          "name": "_id",
          "type": "uint256"
        }
      ],
      "name": "takeJob",
      "outputs": [],
      "stateMutability": "nonpayable",
      "type": "function"
    }
  ],
  "bytecode": "0x608060405234801561001057600080fd5b506110f7806100206000396000f3fe6080604052600436106100345760003560e01c806375cb0ac8146100395780637e8762f7146100555780639330d9bc1461007e575b600080fd5b610053600480360381019061004e9190610951565b6100a7565b005b34801561006157600080fd5b5061007c600480360381019061007791906109d4565b6102f2565b005b34801561008a57600080fd5b506100a560048036038101906100a091906109d4565b6106ba565b005b600134116100ea576040517f08c379a00000000000000000000000000000000000000000000000000000000081526004016100e190610a84565b60405180910390fd5b60006040518060a001604052803373ffffffffffffffffffffffffffffffffffffffff168152602001600073ffffffffffffffffffffffffffffffffffffffff16815260200184848080601f016020809104026020016040519081016040528093929190818152602001838380828437600081840152601f19601f820116905080830192505050505050508152602001348152602001600015158152509050600081908060018154018082558091505060019003906000526020600020906005020160009091909190915060008201518160000160006101000a81548173ffffffffffffffffffffffffffffffffffffffff021916908373ffffffffffffffffffffffffffffffffffffffff16021790555060208201518160010160006101000a81548173ffffffffffffffffffffffffffffffffffffffff021916908373ffffffffffffffffffffffffffffffffffffffff16021790555060408201518160020190816102589190610cea565b506060820151816003015560808201518160040160006101000a81548160ff02191690831515021790555050503373ffffffffffffffffffffffffffffffffffffffff167f55f4e04c8a8ba099607e3993996c0b30c9d5ff7618c0d8d31e6e7c9ffa60c09484843460016000805490506102d29190610deb565b60006040516102e5959493929190610e96565b60405180910390a2505050565b600080828154811061030757610306610ee4565b5b90600052602060002090600502016040518060a00160405290816000820160009054906101000a900473ffffffffffffffffffffffffffffffffffffffff1673ffffffffffffffffffffffffffffffffffffffff1673ffffffffffffffffffffffffffffffffffffffff1681526020016001820160009054906101000a900473ffffffffffffffffffffffffffffffffffffffff1673ffffffffffffffffffffffffffffffffffffffff1673ffffffffffffffffffffffffffffffffffffffff1681526020016002820180546103dc90610b0d565b80601f016020809104026020016040519081016040528092919081815260200182805461040890610b0d565b80156104555780601f1061042a57610100808354040283529160200191610455565b820191906000526020600020905b81548152906001019060200180831161043857829003601f168201915b50505050508152602001600382015481526020016004820160009054906101000a900460ff161515151581525050905060001515816080015115151480156104cc57503373ffffffffffffffffffffffffffffffffffffffff16816000015173ffffffffffffffffffffffffffffffffffffffff16145b801561054a5750600073ffffffffffffffffffffffffffffffffffffffff16600083815481106104ff576104fe610ee4565b5b906000526020600020906005020160010160009054906101000a900473ffffffffffffffffffffffffffffffffffffffff1673ffffffffffffffffffffffffffffffffffffffff1614155b610589576040517f08c379a000000000000000000000000000000000000000000000000000000000815260040161058090610f85565b60405180910390fd5b6000816020015173ffffffffffffffffffffffffffffffffffffffff1682606001516040516105b790610fd6565b60006040518083038185875af1925050503d80600081146105f4576040519150601f19603f3d011682016040523d82523d6000602084013e6105f9565b606091505b5050905080156106b55760016000848154811061061957610618610ee4565b5b906000526020600020906005020160040160006101000a81548160ff021916908315150217905550816020015173ffffffffffffffffffffffffffffffffffffffff16826000015173ffffffffffffffffffffffffffffffffffffffff167fc9f82f3ab594a0fe3b2a0a3544eb95e67e50437ea6c05bbfeb8414bf42b259fa8585606001516040516106ac929190610feb565b60405180910390a35b505050565b600073ffffffffffffffffffffffffffffffffffffffff16600082815481106106e6576106e5610ee4565b5b906000526020600020906005020160010160009054906101000a900473ffffffffffffffffffffffffffffffffffffffff1673ffffffffffffffffffffffffffffffffffffffff161480156107715750600015156000828154811061074e5761074d610ee4565b5b906000526020600020906005020160040160009054906101000a900460ff161515145b80156107ee57503373ffffffffffffffffffffffffffffffffffffffff16600082815481106107a3576107a2610ee4565b5b906000526020600020906005020160000160009054906101000a900473ffffffffffffffffffffffffffffffffffffffff1673ffffffffffffffffffffffffffffffffffffffff1614155b61082d576040517f08c379a000000000000000000000000000000000000000000000000000000000815260040161082490611086565b60405180910390fd5b336000828154811061084257610841610ee4565b5b906000526020600020906005020160010160006101000a81548173ffffffffffffffffffffffffffffffffffffffff021916908373ffffffffffffffffffffffffffffffffffffffff1602179055503373ffffffffffffffffffffffffffffffffffffffff167f570fece144bab0037b8b44f5dc22ce6feffce4bae7b0eaf3de66f0730ee24474826040516108d791906110a6565b60405180910390a250565b600080fd5b600080fd5b600080fd5b600080fd5b600080fd5b60008083601f840112610911576109106108ec565b5b8235905067ffffffffffffffff81111561092e5761092d6108f1565b5b60208301915083600182028301111561094a576109496108f6565b5b9250929050565b60008060208385031215610968576109676108e2565b5b600083013567ffffffffffffffff811115610986576109856108e7565b5b610992858286016108fb565b92509250509250929050565b6000819050919050565b6109b18161099e565b81146109bc57600080fd5b50565b6000813590506109ce816109a8565b92915050565b6000602082840312156109ea576109e96108e2565b5b60006109f8848285016109bf565b91505092915050565b600082825260208201905092915050565b7f796f75206861766520746f207061696420666f72206170706c79696e6720612060008201527f6a6f620000000000000000000000000000000000000000000000000000000000602082015250565b6000610a6e602383610a01565b9150610a7982610a12565b604082019050919050565b60006020820190508181036000830152610a9d81610a61565b9050919050565b600081519050919050565b7f4e487b7100000000000000000000000000000000000000000000000000000000600052604160045260246000fd5b7f4e487b7100000000000000000000000000000000000000000000000000000000600052602260045260246000fd5b60006002820490506001821680610b2557607f821691505b602082108103610b3857610b37610ade565b5b50919050565b60008190508160005260206000209050919050565b60006020601f8301049050919050565b600082821b905092915050565b600060088302610ba07fffffffffffffffffffffffffffffffffffffffffffffffffffffffffffffffff82610b63565b610baa8683610b63565b95508019841693508086168417925050509392505050565b6000819050919050565b6000610be7610be2610bdd8461099e565b610bc2565b61099e565b9050919050565b6000819050919050565b610c0183610bcc565b610c15610c0d82610bee565b848454610b70565b825550505050565b600090565b610c2a610c1d565b610c35818484610bf8565b505050565b5b81811015610c5957610c4e600082610c22565b600181019050610c3b565b5050565b601f821115610c9e57610c6f81610b3e565b610c7884610b53565b81016020851015610c87578190505b610c9b610c9385610b53565b830182610c3a565b50505b505050565b600082821c905092915050565b6000610cc160001984600802610ca3565b1980831691505092915050565b6000610cda8383610cb0565b9150826002028217905092915050565b610cf382610aa4565b67ffffffffffffffff811115610d0c57610d0b610aaf565b5b610d168254610b0d565b610d21828285610c5d565b600060209050601f831160018114610d545760008415610d42578287015190505b610d4c8582610cce565b865550610db4565b601f198416610d6286610b3e565b60005b82811015610d8a57848901518255600182019150602085019450602081019050610d65565b86831015610da75784890151610da3601f891682610cb0565b8355505b6001600288020188555050505b505050505050565b7f4e487b7100000000000000000000000000000000000000000000000000000000600052601160045260246000fd5b6000610df68261099e565b9150610e018361099e565b9250828203905081811115610e1957610e18610dbc565b5b92915050565b82818337600083830152505050565b6000601f19601f8301169050919050565b6000610e4b8385610a01565b9350610e58838584610e1f565b610e6183610e2e565b840190509392505050565b610e758161099e565b82525050565b60008115159050919050565b610e9081610e7b565b82525050565b60006080820190508181036000830152610eb1818789610e3f565b9050610ec06020830186610e6c565b610ecd6040830185610e6c565b610eda6060830184610e87565b9695505050505050565b7f4e487b7100000000000000000000000000000000000000000000000000000000600052603260045260246000fd5b7f596f75277265206e6f7420746865206f776e6572206f72206a6f6220616c726560008201527f6164792070616964206f72206a6f62206e6f742066696e697368656420697400602082015250565b6000610f6f603f83610a01565b9150610f7a82610f13565b604082019050919050565b60006020820190508181036000830152610f9e81610f62565b9050919050565b600081905092915050565b50565b6000610fc0600083610fa5565b9150610fcb82610fb0565b600082019050919050565b6000610fe182610fb3565b9150819050919050565b60006040820190506110006000830185610e6c565b61100d6020830184610e6c565b9392505050565b7f54686973206a6f622069732074616b656e206f7220796f75722061726520746860008201527f6520617574686f722e0000000000000000000000000000000000000000000000602082015250565b6000611070602983610a01565b915061107b82611014565b604082019050919050565b6000602082019050818103600083015261109f81611063565b9050919050565b60006020820190506110bb6000830184610e6c565b9291505056fea264697066735822122023469daf2d233114a5c36b05fdb1fff711caeb8b59a5c71c2c65b8cd7b1e9f5c64736f6c63430008110033",
  "linkReferences": {},
  "deployedLinkReferences": {}
}